:100000000C94E2060C9429070C9429070C942907F8
:100010000C9429070C9429070C9429070C942907A0
:100020000C9429070C9429070C9449270C941C283C
:100030000C942A1E0C9429070C9429070C94290768
:100040000C9429070C9429070C9429070C94290770
:100050000C9429070C94901E0C9429070C942907E2
:100060000C9429070C9429070C9429070C94290750
:100070000C9429070C9429070C9429070C94290740
:100080000C9429070C9429070C9429070C94290730
:100090000C9429070C9429070C9429070C94290720
:1000A0000C9429070C9429070C9429072900350082
:1000B0001E001F0020002100220023002400250034
:1000C000260027002C004C002A002E002B001400D4
:1000D0001A000800150017001C0018000C00120080
:1000E00013002F00300031002D00390004001600ED
:1000F000070009000A000B000D000E000F0033007E
:1001000034002C0028004B00E1001D001B000600FD
:1001100019000500110010003600370038002C00CF
:100120005200E1004E00E000E300E20034702C00D9
:100130002C002C002C002C00E200E00050005100AC
:100140004F00010001000100010001000100010059
:100150000100010001000100010001000100010097
:100160000100010001000100010001000100010087
:100170000100010001000100010001000100010077
:100180000100010001000100010001000100010067
:100A000001000100010001000100010064321464D2
:100A10003214783C1E1E140A05000000000101017A
:100A20000202030405050607090A0B0C0E0F11123A
:100A3000141517191B1D1F212325282A2C2F31348B
:100A400036393B3E414346494C4F5255585A5D61F9
:100A500064676A6D707376797C7F8386898C8F92E8
:100A600095989B9EA2A5A7AAADB0B3B6B9BCBEC1CE
:100A7000C4C6C9CBCED0D3D5D7DADCDEE0E2E4E61B
:100A8000E8EAEBEDEEF0F1F3F4F5F6F8F9FAFAFB3B
:100A9000FCFDFDFEFEFEFFFFFFFFFFFFFFFEFEFE73
:100AA000FDFDFCFBFAFAF9F8F6F5F4F3F1F0EEEDE2
:100AB000EBEAE8E6E4E2E0DEDCDAD7D5D3D0CECB71
:100AC000C9C6C4C1BEBCB9B6B3B0ADAAA7A5A29EE3
:100AD0009B9895928F8C898683807C797673706DD4
:100AE0006A6764615D5A5855524F4C494643413ECE
:100AF0003B393634312F2C2A282523211F1D1B1961
:100B000017151412110F0E0C0B0A09070605050420
:100B100003020201010100000000000000000101C9
:100B200001010101010101020202020202020202AC
:100B3000030303030303030304040404040405057B
:100B4000050505060606060607070707080808083C
:100B50000909090A0A0A0A0B0B0B0C0C0C0D0D0DE6
:100B60000E0E0F0F0F101011111112121313141477
:100B7000151516161717181819191A1A1B1C1C1DEB
:100B80001D1E1F1F20202122222324252526272742
:100B900028292A2B2B2C2D2E2F2F30313233343570
:100BA00036363738393A3B3C3D3E3F40414243447C
:100BB000464748494A4B4C4D4F5051525355565752
:100BC000585A5B5C5E5F606263646667696A6C6DFD
:100BD0006E707173747678797B7C7E808183848675
:100BE000888A8B8D8F91929496989A9B9D9FA1A3B2
:100BF000A5A7A9ABADAFB1B3B5B7B9BBBDBFC1C4B4
:100C0000C6C8CACCCFD1D3D6D8DADCDFE1E4E6E877
:100C1000EBEDF0F2F5F7FAFCFF12036B00650079DB
:100C20000062006F00610072006400000016037132
:100C3000006D006B006200750069006C0064006567
:100C400000720000000403090409026D00040100A1
:100C5000A0FA0904000001030101000921110100AB
:100C6000012240000705810308000A090401000170
:100C700003010200092111010001224D0007058234
:100C80000308000A09040200010300000009211101
:100C90000100012236000705830308000A09040346
:100CA00000010300000009211101000122390007A1
:100CB0000584032000011201100100000008EDFE70
:100CC000606001000102000105010906A10105079C
:100CD00019E029E71500250195087501810205082D
:100CE0001901290595057501910295017503910179
:100CF0000507190029F71500250195F875018102EE
:100D0000C005010980A10185021601002603001A11
:100D100081002A8300751095018100C0050C09012E
:100D2000A1018503160100269C021A01002A9C02DB
:100D3000751095018100C005010902A1010901A1F9
:100D40000005091901290515002501950575018181
:100D500002950175038101050109300931158125CD
:100D60007F95027508810609381581257F950175E3
:100D7000088106050C0A38021581257F9501750842
:100D80008106C0C005010906A101050719E029E790
:100D900015002501950875018102950175088101ED
:100DA000050819012905950575019102950175033D
:100DB00091010507190029FF150026FF009506750A
:100DC000088100C011241FBECFEFDAE0DEBFCDBF27
:100DD00004B603FE27C080919E0290919F02A091CD
:100DE000A002B091A1028730904BA740B04BD1F444
:100DF00010929E0210929F021092A0021092A102E5
:100E000014BE84B7877F84BF0FB6F894A8958091ED
:100E10006000886180936000109260000FBEE0E087
:100E2000F8E3099511E0A0E0B1E0E2E7F7E502C0E0
:100E300005900D92AC33B107D9F722E0ACE3B1E0F5
:100E400001C01D92AE39B207E1F70E9496240C94BE
:100E5000682B0C94000090E080E0089508950895B8
:100E600081E00895089581E008950C9430070E9470
:100E7000C3162FEF84E39CE0215080409040E1F7BF
:100E800000C000000C94B31EFF920F931F93CF93EA
:100E9000DF938C01FC01C081D18180918D01811192
:100EA00048C08281882309F43FC0CE010E94F31B11
:100EB000F82E682FCE010E949F1BBE018F2D0E942D
:100EC0000E09EC01B8010E943507882309F478C0A7
:100ED000B801CE010E943A0B882309F471C0C633D1
:100EE000F0E7DF0709F484C0C0F5C53190E7D90702
:100EF00028F5C230E0E7DE0708F099C0C115F0E739
:100F0000DF0709F458C0C130D04709F460C081E060
:100F100080933E0180933F01C801DF91CF911F91E3
:100F20000F91FF900C943307CE010E94CB1BF82E3B
:100F3000C4CFCE010E94F31BBE01C1CFC43390E7E2
:100F4000D90709F44EC0C533D04709F7F8018281AB
:100F50008823B1F10E94600F33C0CA33F0E7DF0786
:100F600009F457C070F4F8018281C833F0E7DF0755
:100F700009F44AC008F443C0882311F10E94A40E6A
:100F80001FC0CC33E0E7DE0709F4C3C008F448C053
:100F9000CD33D04709F0BBCFF8018281882309F413
:100FA000DFC010923F010E945A1E90933D01809332
:100FB0003C0180E2BBC0F801828181110E943707A9
:100FC00080E0DF91CF911F910F91FF900895F8017C
:100FD00082818823A9F38091250281608093250274
:100FE000EFCFF8018281882359F30E946A0FE8CF7E
:100FF000F8018281882321F30E94550EE1CF8823D6
:10100000F9F20E946D0EDCCF8823D1F20E948C0E83
:10101000D7CFF8018281882399F20E94BC0ED0CFED
:10102000F8018281882361F20E94D40EC9CFF801B1
:101030008281882309F470CF0E94AD1D811102C006
:101040000E94871D0E94CA1D90E090938F0280939A
:101050008E02FE01E350F04780918E028160E23102
:10106000F10538F4E659F44D0C941A2B80918E0258
:10107000826080938E0280918E020E94CE1D0E941B
:10108000C3169ECF80918E028460F3CF80918E0232
:101090008860EFCF80918E028061EBCF80918E02CD
:1010A0008062E7CF80918E028064E3CF80918E02D0
:1010B0008068DFCF80918E028C60DBCF80918E02C2
:1010C0008E7FD7CF80918E028D7FD3CF80918E027D
:1010D0008B7FCFCF80918E02877FCBCF80918E0286
:1010E0008F7EC7CF80918E028F7DC3CF80918E027D
:1010F0008F7BBFCF80918E028F77BBCF80918E0286
:10110000837FB7CF90918E02892F97FB87F9805804
:10111000B0CFF8018281882361F010923E010E94D5
:101120005A1E90933D0180933C0182E00E94591425
:1011300047CF80913E0181110FC080913C01909179
:101140003D010E94661E883C910530F486E20E94B3
:101150002E1386E20E940A1482E00E94601430CFAF
:1011600080913F0181110FC080913C0190913D0120
:101170000E94661E883C910530F487E20E942E137F
:1011800087E20E940A1480E2E8CF0C948B0B279A26
:101190002F988FEF9FEF90938700809386008AE0CF
:1011A0008093800089E1809381000C944B220E94FF
:1011B000C7080C94890B2F9881110AC08091800078
:1011C000877F8093800010928D0010928C0008958C
:1011D000833061F4809180008860809380008FEF7D
:1011E0009FEF90938D0080938C00089590918000E4
:1011F00098609093800023E030E0281B3109220F93
:10120000331F8FEF9FEF02C0969587952A95E2F7DF
:10121000E8CF0C9432070C9409090895972F70E0D9
:101220002FE0929F600D711D1124FB019BE4899FAB
:10123000E00DF11D1124EE0FFF1FE455FF4F8591C6
:1012400094910895FC01EE0FFF1FE45FF54F859127
:10125000949108950E940E090E94BE0A811520E50E
:10126000920708F042C0811530E4930708F0F9C0F6
:10127000883E910528F5803E910508F07EC1883AA8
:10128000910590F4853A910508F086C0813091056A
:1012900009F473C1009709F470C18430910508F016
:1012A0006CC190E080E008958D3B910508F47FC00B
:1012B000803C9105B0F3805C91090E942209089559
:1012C000811540E2940750F4811561E0960708F01B
:1012D00054C1803F910528F390650895811570E30E
:1012E000970708F0BBC09F70E8CF811525E59207EE
:1012F00048F5811534E5930708F0E4C0811542E50F
:10130000940750F4811561E5960708F4ADC0982F55
:101310008827816F906A0895282F26952695AC011D
:10132000437055278115934508F0BDC081E090E0DA
:1013300002C0880F991F4A95E2F770E2279F90013B
:101340001124ADC0803320E7920798F4803230E753
:10135000930708F0C1C0811546E5940708F4B7C0AB
:101360009C0130569F702115304108F09ACF906251
:101370000895813370E7970709F4B2C008F4B3C049
:10138000823330E7930709F4B1C08333904709F003
:1013900088CF80E093ED0895853A910509F4A9C0BE
:1013A000863A910509F0A8C082E890E40895883A49
:1013B000910509F4A4C0893A910509F4A3C08A3AB9
:1013C000910509F4A2C08B3A910509F4A1C08C3AA9
:1013D000910509F4A0C08B3B910509F49FC08C3B9B
:1013E000910509F49EC08D3A910509F49DC0803B9A
:1013F000910509F49CC08E3A910509F49BC08F3A7F
:10140000910509F49AC0813B910509F499C0823B8A
:10141000910509F498C0833B910509F497C0843B7A
:10142000910509F496C0853B910509F495C0863B6A
:10143000910509F494C0873B910509F493C0883B5A
:10144000910509F492C0893B910509F491C08A3B4A
:10145000910509F490C080E094E408959927906C78
:1014600008959F70906A08959C0154E036952795E1
:101470005A95E1F7922F9370282F26952695237081
:1014800060E2269F90011124392B837041E050E0E7
:10149000BA0102C0660F771F8A95E2F7CB01822B53
:1014A000932B9C68089581E090E002C0880F991FFB
:1014B0004A95E2F740E2249F90011124822B932B5E
:1014C0009A680895982F8827846F906A0895982FB6
:1014D000882788279F714BCF80529047946D08953D
:1014E00080E090ED089580E091ED089580E092ED28
:1014F000089581E890E4089583E890E4089582EEE9
:1015000094E4089589EE94E408958AEE94E40895AD
:1015100085EB94E4089586EB94E4089583EB94E4DA
:10152000089584EB94E4089587EB94E408958CEC9B
:1015300094E408958DEC94E4089583E895E4089587
:101540008AE895E4089582E995E4089584E995E4AC
:10155000089581E296E4089583E296E4089584E292
:1015600096E4089585E296E4089586E296E4089567
:1015700087E296E408958AE296E408958238910518
:1015800049F1B0F48133910509F462C048F489321D
:10159000910509F456C08A32910509F460C0089596
:1015A0008533910509F446C08933910599F0089572
:1015B000833E910531F138F4803E910591F0823EF1
:1015C0009105B1F00895863E910521F1873E910580
:1015D00051F1089520918E022370D9F080EE90E0B1
:1015E000089520918E0220FF14C089E390E00895B1
:1015F00020918E0222FF0DC024FD09C083EE90E0F1
:10160000089520918E0222FD31C024FF02C090E097
:1016100080E0089520918E0223FFFBCF24FDF7CFB9
:1016200087EE90E0089520918E0223FFEECF86EEA4
:1016300090E0089520918E0225FFEBCF89E290E0A3
:10164000089520918E0225FFE4CF85E390E0089570
:1016500020918E0226FFDDCF8AE290E0089520914E
:101660008E0226FFD6CF81E390E0089582EE90E0CF
:10167000089508950F931F93CF938C01FB018281EE
:10168000811106C0C1E08C2FCF911F910F91089559
:10169000C0914D01C11125C00531104799F70E9435
:1016A000390B81E080934D010E945A1E90934C01AA
:1016B00080934B011092400110924201109241011F
:1016C000109244011092430110924601109245017C
:1016D000109248011092470110924A01109249015C
:1016E000D2CF80914B0190914C010E94661E883CA4
:1016F000910540F680914001E82FF0E0EE0FFF1FCA
:10170000EF5BFE4F118300838F5F80934001C0E049
:10171000BACF0C942E070C942F07CF93DF9385B785
:10172000806885BF85B7806885BFA3E2B1E048E2E5
:1017300051E0C1E0D0E08D91E82FE295EF70F0E04C
:1017400061A18F709E0101C0220F8A95EAF7922F46
:101750009095962391A382A1822B82A34A175B07BF
:1017600051F7A4E1B1E061E070E08D91E82FE295DE
:10177000EF70F0E041A18F709B0101C0220F8A95AC
:10178000EAF7922F9095942391A382A1822B82A3B2
:1017900081E0A332B80749F710925901109258011D
:1017A00010924F0110924E0110925B0110925A015B
:1017B000109251011092500110925D0110925C0143
:1017C000109253011092520110925F0110925E012B
:1017D0001092550110925401109261011092600113
:1017E0001092570110925601DF91CF910C94D708B7
:1017F0004F925F927F928F929F92AF92BF92CF92C1
:10180000DF92EF92FF920F931F93CF93DF939EE4AB
:10181000492E91E0592E23E2E22E21E0F22E01E042
:1018200010E099249394E201A990B9902E01DE0171
:101830001E921E92F70181917F01E82FE295EF70D1
:10184000F0E091A18F70980101C0220F8A95EAF70C
:10185000892F822B81A382A1822E8094882182A34A
:1018600080EA8A95F1F784E1C82E81E0D82E90E0D5
:1018700080E0E60179916E01472F42954F7050E06C
:10188000EA0178A04D915C9111977F70E80102C048
:10189000CC0FDD1F7A95E2F7BE01672109F072C017
:1018A000B801082E02C0660F771F0A94E2F7462B94
:1018B000572B11965C934E9301968F309105C9F684
:1018C00081A1882281A282A1282B22A38D919C91A3
:1018D000A816B90641F0909262010E945A1E909398
:1018E000640180936301D8E54D16D1E05D0609F0EF
:1018F0009ACF80916201882391F180916301909148
:1019000064010E94661E069750F180914E019091ED
:101910004F0190935901809358018091500190910B
:10192000510190935B0180935A01809152019091F3
:10193000530190935D0180935C01809154019091DB
:10194000550190935F0180935E01809156019091C3
:1019500057019093610180936001109262010E948F
:10196000C50881E0DF91CF911F910F91FF90EF901B
:10197000DF90CF90BF90AF909F908F907F905F90BF
:101980004F90089570E060E092CFE82FF0E0EE0F06
:10199000FF1FE85AFE4F808191810895089531B369
:1019A000242F2095232331B3432B3FB7F894680F9E
:1019B000791F8617970711F43FBF0895FC015191D5
:1019C000CF01E8E041BB000000C057FF21BB550F2D
:1019D000000000C000C000C021BB00C0EA9591F724
:1019E000E8CF20B3242B20BB9B01220F331F620FB3
:1019F000731F0E94CF0C87EC90E00197F1F700C0B5
:101A00000000089541E00C94F10CCF92DF92EF9228
:101A1000FF920F931F93CF93DF93E901662309F49D
:101A200066C0E42EF12CEFEFF0E0E61BF109EE9D2D
:101A30008001EF9D100DFE9D100D1124212FE12F2F
:101A4000FF27EE1AFF0A5CE3C52ED12CB6010E94D7
:101A5000F22AFB01BC01E69EC001E79E900DF69EB6
:101A6000900D1124B6010E94F22AE230F10589F1AD
:101A700068F4812F262F210F309781F0242F461BE9
:101A8000319761F080E020E040E008C0E430F105EB
:101A900051F128F1842F861B3597A1F7E42FF0E050
:101AA000E75EF44F4491E22FF0E0E75EF44F94914B
:101AB000E82FF0E0E75EF44FE49149839883EA83EE
:101AC000DF91CF911F910F91FF90EF90DF90CF901A
:101AD0000895862F810FE42F412F2E2FDFCFE42F83
:101AE000E61B842FF9CF842F462F410FD7CF842FA9
:101AF000242FD4CF88E090E00C94282BAB01BC01BC
:101B000088E090E00C94462BE2E5F2E083E08083ED
:101B100011828FEF8283838360915202709153020E
:101B200080915402909155020C947E0D8091520246
:101B3000EAE5F2E080FF06C060E170E08AE592E04D
:101B40000C94020D118210821282339682E0EA38E0
:101B5000F807C1F7F1CFEAE5F2E0818360834283C1
:101B6000339692E0EA38F907C1F70C94960DEF929C
:101B7000FF920F931F93CF93DF9300D00F92CDB7B7
:101B8000DEB7182FE92EF62E042F80915202909185
:101B90005302A0915402B091550280935602909343
:101BA0005702A0935802B09359028091520280FFCD
:101BB0001FC09E012F5F3F4F812F9E2D0E94050D5C
:101BC0008091560210FB87F98093560216958091FA
:101BD00057028078812BE0FA87F980935702F092C0
:101BE0005802009359024B8169818A810E94AB0D92
:101BF0000F900F900F90DF91CF911F910F91FF9059
:101C0000EF9008950F931F93CF93DF93EC01062F6E
:101C1000142F9091520290FF43C0892F8E7782300B
:101C200021F5CE010E94B70D80915202C0FB87F9C9
:101C300080935202C695809153028078C82BD0FBC6
:101C4000C7F9C09353020093540210935502609158
:101C50005202709153028091540290915502DF918B
:101C6000CF911F910F910C947E0D892F86958F73C4
:101C70002EE3280F2F73243018F410915502D4CF7F
:101C8000865C8F73893080F6991F9927991FD091B0
:101C90005302CD2FCC0FC92BD7FBDD27D0F9C4CFF2
:101CA000DF91CF911F910F910895E2E5F2E020813D
:101CB000221F2227221F30915302432F440F842FCB
:101CC000822B37FB992790F9089668E671E00E940D
:101CD000062B438162810C94020E20915202221F36
:101CE0002227221F30915302432F440F842F822B2F
:101CF00037FB992790F98830910540F4805A9E4F20
:101D000040915502609154020C94020E089768E6C7
:101D100071E00E94062BF4CF60915402683F90F46A
:101D2000685F80915202881F8827881F9091530214
:101D3000292F220F97FB992790F940915502822B6A
:101D40000C94020E6FEFEDCF60915402683090F06A
:101D5000685080915202881F8827881F90915302F3
:101D6000292F220F97FB992790F940915502822B3A
:101D70000C94020E60E0EDCF40915502483F90F484
:101D8000485F80915202881F8827881F90915302D4
:101D9000292F220F97FB992790F960915402822BEB
:101DA0000C94020E4FEFEDCF40915502483090F069
:101DB000485080915202881F8827881F90915302B3
:101DC000292F220F97FB992790F960915402822BBB
:101DD0000C94020E40E0EDCF9091520290FF3BC078
:101DE0009178811126C092609093520260915202C4
:101DF0007091530280915402909155020E947E0D81
:101E000080915202982F9E779230D9F410927A01E5
:101E1000881F8827881F90915302292F220F97FB34
:101E2000992790F94091550260915402822B0C94AD
:101E3000020E893110F09063D7CF8F73880F982BE3
:101E4000D3CF982F9695925C9F73963108F791E0C7
:101E500090937A01DDCF089580912502816080936F
:101E6000250281E080937B010E94AD1D811104C099
:101E70000E94871D0E94840D0E947A0D6093520279
:101E80007093530280935402909355026E7761F4DD
:101E90000E94840D0E947A0D609352027093530247
:101EA000809354029093550281E080937A0180914F
:101EB000520280FF04C086958F730C94EC0E089537
:101EC0008091520286958F738F5F893108F081E08F
:101ED0000C94EC0E90915202892F8E7F90FF8160BE
:101EE0008093520260915202709153028091540289
:101EF000909155020E947E0D8091520280FF04C095
:101F000086958F730C94EC0E10927A012FEF80E778
:101F100092E0215080409040E1F700C000000C9416
:101F2000960DCF93C82F80917801909179010E94EE
:101F3000661EEC2FF0E0EB5EF54FE491E817190612
:101F400009F010F50E945A1E909379018093780150
:101F5000E0917701F0E0E75EF54F44918091520205
:101F6000881F8827881F90915302292F220F97FBE3
:101F7000992790F960915402822B0E94B70D8091AD
:101F800077018F5F80937701CF910895CF93C82F0A
:101F900080917501909176010E94661EEC2FF0E011
:101FA000EE5EF54FE491E817190609F0E8F40E9497
:101FB0005A1E90937601809375014091550260916D
:101FC000540280917301909174010E94B70D809129
:101FD000730190917401019668E671E00E94F22A03
:101FE0009093740180937301CF910895DF92EF92E3
:101FF000FF920F931F93CF93DF93D82E809171019F
:10200000909172010E94661EED2DE695F0E0EE5E65
:10201000F54FE491E817190609F0A8F50E945A1E39
:1020200090937201809371010AE512E0D0E0C0E064
:1020300088E6E82EFF24F39480916F01909170015F
:102040008C0F9D1FB7010E94F22A98014091550202
:10205000609154020E94050D66960D5F1F4FC036B9
:1020600081E0D80749F70E94960D80916F01909109
:102070007001D0FE10C00196B7010E94F22A909321
:10208000700180936F01DF91CF911F910F91FF90AD
:10209000EF90DF9008950197F2CFAF92BF92CF9269
:1020A000DF92EF92FF920F931F93CF93DF93C82F8E
:1020B000FF24FA9480FD02C0FF24F39480916D0107
:1020C00090916E010E94661EC695EC2FF0E0E15FD4
:1020D000F54FE491E817190611F008F053C00E947B
:1020E0005A1E90936E0180936D01CAE5D2E010E014
:1020F00000E097E0C92ED12C198218821A8287E05D
:10210000A82EB12CE12C80916C018E0D87FD805F93
:10211000082E000C990B80179107E9F420915502C5
:102120002A9DC0012B9D900D1124B6010E94062B03
:10213000462F80915202881F8827881F9091530252
:10214000592F550F97FB992790F99E0160915402E2
:10215000852B0E94050DEF0C81E0A81AB10899F6B5
:102160000F5F1F4F23960031110531F60E94960D27
:1021700080916C0191E0F91212C081110EC08FE0C4
:1021800080936C01DF91CF911F910F91FF90EF90A1
:10219000DF90CF90BF90AF9008958150F1CF90E045
:1021A00001968F709927ECCFBF92CF92DF92EF927A
:1021B000FF920F931F93CF93DF93CDB7DEB7E097D6
:1021C0000FB6F894DEBF0FBECDBF182F80916A0105
:1021D00090916B010E94661EE12FF0E0E45FF54FE5
:1021E000E491E817190611F008F071C00E945A1E18
:1021F00090936B0180936A018E010F5F1F4FF12C4A
:10220000E12C6801F801118210821282B12C9091A8
:10221000000180916901B99E800D112480310CF07C
:102220008FE087FD80E0082E000C990B8E159F052E
:10223000A1F480915202881F8827881F9091530231
:10224000592F550F97FB992790F998014091550206
:1022500060915402852B0E94050DB394F7E0BF12E4
:10226000D6CF8FEFE81AF80A0D5F1F4FE0E1EE16A8
:10227000F10441F6AAE5B2E089E090E09C012F70FC
:102280003327F901EE0FFF1FE20FF31FEC0DFD1DC9
:10229000218111962C93119720812C9322811296E3
:1022A0002C931297019613968931910539F70E9464
:1022B000960D90910001809169019130E1F48A3F7F
:1022C000B4F489EF809369018FEF80930001E09669
:1022D0000FB6F894DEBF0FBECDBFDF91CF911F9137
:1022E0000F91FF90EF90DF90CF90BF9008958150B5
:1022F00080936901ECCF87312CF086E180936901EE
:1023000081E0E3CF8F5FF4CFCF93DF9380916701BC
:10231000909168010E94661E883E934028F10E94B9
:102320005A1E909368018093670180916501909196
:1023300066010196817099279093660180936501EB
:10234000CAE5D2E09E01409155026091540290E0AE
:1023500080E00E94050D239682E0CA38D80791F7E5
:10236000DF91CF910C94960DDF91CF9108958091DC
:102370007A01882371F18091520286958F739EE3D2
:10238000980F9F73943018F482500C94910F9AE335
:10239000980F9F73933018F486500C94C60F97E3F0
:1023A000980F9F73963018F489500C94F60F91E3B0
:1023B000980F9F73963018F48F500C944D109BE239
:1023C000980F9F73933018F485510C94D4100C948B
:1023D0008411089590938101809380010895E09184
:1023E0008001F0918101309721F00190F081E02D82
:1023F000099480E00895E0918001F0918101309787
:1024000021F00280F381E02D09940895E09180018C
:10241000F0918101309721F00480F581E02D09943D
:10242000089520917E0130917F012817390771F0BE
:1024300090937F0180937E01E0918001F091810172
:10244000309721F00680F781E02D099408952091BE
:102450007C0130917D012817390771F090937D013F
:1024600080937C01E0918001F0918101309721F00F
:102470000084F185E02D0994089508950C943D128F
:102480000E94511E0E948D0B0E94201F0E944B2211
:102490000C942C0F5F926F927F928F929F92AF92CB
:1024A000BF92CF92DF92EF92FF920F931F93CF9341
:1024B000DF93CDB7DEB72A970FB6F894DEBF0FBE15
:1024C000CDBF0E94F80B93E8A92E91E0B92E10E041
:1024D00000E088248394912C502E802F0E94C50CFC
:1024E0007C01F501C190D1905F01C816D90609F4AD
:1024F0005EC08091250281FD0E94CE0C90E080E0BC
:10250000CE24DF243401082E02C0660C771C0A9406
:10251000E2F7960126213721232B09F443C08E834D
:102520005F82E620F72081E0EF2809F480E08887C9
:102530000E945A1E8160782F9A8789874E815F8119
:1025400068858A850E940413000F111FF801ED575A
:10255000FE4F8081918168267926718260820E9477
:102560009E210E94EF11909182018917B9F10E947A
:10257000EF11809382012A960FB6F894DEBF0FBE4A
:10258000CDBFDF91CF911F910F91FF90EF90DF9022
:10259000CF90BF90AF909F908F907F906F905F9003
:1025A0000C940B0901968F30910509F0ABCF0F5FAA
:1025B0001F4F0530110509F08FCF8FEF89838A8374
:1025C0001B820E945A1E8160782F9D838C834981D3
:1025D0005A816B818D810E940413C1CF2A960FB658
:1025E000F894DEBF0FBECDBFDF91CF911F910F9149
:1025F000FF90EF90DF90CF90BF90AF909F908F9023
:102600007F906F905F900895CF93DF93CDB7DEB743
:102610002B970FB6F894DEBF0FBECDBF4F83588700
:1026200069877A878B871E821D8285E0FE01379637
:10263000DE01119601900D928A95E1F749815A8148
:102640006B817C818D819E812B960FB6F894DEBFC5
:102650000FBECDBFDF91CF910C945319882309F49D
:10266000D8C0823871F40E94EF1181FDD2C089E395
:102670000E94931C0E94581D89E30E94D01C0C9458
:10268000581D833859F40E94EF1180FDC2C083E5C4
:102690000E94931C0E94581D83E5EFCF843859F4A3
:1026A0000E94EF1182FDB5C087E40E94931C0E9436
:1026B000581D87E4E2CF9CEF980F913A18F40E94DE
:1026C000931CDDCF90E2980F983050F4877091E022
:1026D00001C0990F8A95EAF7892F0E94121DCFCF6A
:1026E0009BE5980F933070F4853A31F0863A39F0D3
:1026F00083E890E00C94111281E890E0FBCF82E82F
:1027000090E0F8CF98E5980F953108F082C0883AAC
:1027100009F440C0893A09F440C08A3A09F440C03B
:102720008B3A09F440C08C3A09F440C08B3B09F461
:1027300040C08C3B09F440C08D3A09F440C0803B56
:1027400009F440C08E3A09F440C08F3A09F440C001
:10275000813B09F440C0823B09F440C0833B09F44B
:1027600040C0843B09F440C0853B09F440C0863B2F
:1027700009F440C0873B09F440C0883B09F440C0DD
:10278000893B09F440C08A3B09F440C090E080E0F6
:102790000C94271282EE90E0FBCF89EE90E0F8CF08
:1027A0008AEE90E0F5CF85EB90E0F2CF86EB90E0FB
:1027B000EFCF83EB90E0ECCF84EB90E0E9CF87EBB9
:1027C00090E0E6CF8CEC90E0E3CF8DEC90E0E0CFB2
:1027D00083E891E0DDCF8AE891E0DACF82E991E009
:1027E000D7CF84E991E0D4CF81E292E0D1CF83E2E8
:1027F00092E0CECF84E292E0CBCF85E292E0C8CFE8
:1028000086E292E0C5CF87E292E0C2CF8AE292E010
:10281000BFCF0895882309F44BC0823871F40E9419
:10282000EF1181FF45C089E30E94931C0E94581D4F
:1028300089E30E94D01C0C94581D833859F40E94DF
:10284000EF1180FF35C083E50E94931C0E94581D44
:1028500083E5EFCF843859F40E94EF1182FF28C03E
:1028600087E40E94931C0E94581D87E4E2CF9CEFEE
:10287000980F913AF0F290E2980F983050F48770E8
:1028800091E001C0990F8A95EAF7892F0E94181DDF
:10289000D2CF9BE5980F933020F490E080E00C9429
:1028A0001112885A853120F490E080E00C942712B0
:1028B0000895882321F00E94121D0C94581D08953C
:1028C000882321F00E94181D0C94581D08958F92A2
:1028D0009F92AF92BF92DF92EF92FF920F931F935E
:1028E000CF93DF937C01D62FC72FFC010581029582
:1028F0000F70128111110E942F1D0E948C1CD82E66
:10290000882371F01123A1F080E28D0F883080F0D0
:1029100082E00E94761C0E948C1C91E0D82ED92661
:10292000EC2FE295EF70F0E0E458F44D0C941A2B84
:10293000D12CF6CF0C2F0F70C07F11F00295007FC5
:102940001123A9F0002359F080E28D0F883010F098
:10295000D11109C0802F0E94121D0E94581D8D2F79
:102960000E942E1314C0802F0E94221DF6CF8D2F9F
:102970000E940A14002359F080E28D0F883010F075
:10298000D11124C0802F0E94181D0E94581DDD20E7
:1029900009F4AFC10E94691C80FDABC1F70112822E
:1029A0000E94631C0E94E31AC7010E9485160E94C0
:1029B000631CDF91CF911F910F91FF90EF90DF90FB
:1029C000BF90AF909F908F900C94041B802F0E941B
:1029D000281DDBCFFC2FFF70BF2EC07FC03219F047
:1029E000B29480EFB822DD2369F0D13029F11123B0
:1029F00069F1002359F0F701858180FFB0CF8F7016
:102A0000858304C0112361F0011104C08B2D0E9445
:102A10005914BDCF8B2D0130D1F70E94421DB7CF85
:102A2000011106C00E94451D8B2D0E946014AFCF7E
:102A3000013009F4ACCFF6CF112321F0063008F0B5
:102A4000A6CFE4CF053008F0A2CFEECF002361F38C
:102A50008D2F0E940A149BCF8C2F869586958370AC
:102A600069F0813009F093CF8D2F9C2F9370111155
:102A700002C090E080E00E94271289CF8D2F9C2F0A
:102A80009370111102C090E080E00E9411127FCF7C
:102A90008D2F112329F00E94AC200E94932177CF23
:102AA0000E941421FACF8C2F837009F047C01111B6
:102AB0006ECF2D2F229526952770220F220F6D2F76
:102AC0006F70862E912CB12CA12C022E04C0880C84
:102AD000991CAA1CBB1C0A94D2F760E070E0CB01E1
:102AE000D4FF0FC06FE070E080E090E004C0660F9C
:102AF000771F881F991F2A95D2F76095709580954A
:102B00009095C695C695C370C23051F080F468297F
:102B100079298A299B29C13071F00E948C1A37CFFC
:102B2000682979298A299B290E94A81A30CF0E94F6
:102B30008C1AC501B4010E94701A29CF8695112301
:102B400011F08C2F8170882309F421CF2D2F22952D
:102B500026952770220F220F6D2F6F70862E912CD5
:102B6000B12CA12C022E04C0880C991CAA1CBB1CE1
:102B70000A94D2F760E070E0CB01D4FF0FC06FE0A1
:102B800070E080E090E004C0660F771F881F991FF7
:102B90002A95D2F76095709580959095C695C695C3
:102BA000C370C23051F080F4682979298A299B29A1
:102BB000C13071F00E94661BEACE682979298A2902
:102BC0009B290E94821BE3CE0E94661BC501B401B3
:102BD0000E944A1BDCCEE0E2ED0FE53108F04DC06B
:102BE000F0E0E457F44D0C941A2BDF708C2F8F71AA
:102BF000112321F00E94E31A8D2F09CF0E94041B9C
:102C00008D2F13CF112341F0053008F0C0CE8C2F4B
:102C10008F710E94291BBBCE063008F0B8CEF7CFCB
:102C20008C2F8F71112339F00E94E31AB0CE8C2FB4
:102C30008F711123C9F30E94041BA9CE112329F01F
:102C40008C2F8F710E94CE1AA2CE0E94C41A9FCEE2
:102C5000112349F0CF718C2F0E94E31A63E08C2F6F
:102C60000E946D1C94CE81E00E94761C023008F414
:102C70008ECE82E00E94761C8ACE112329F00111AB
:102C80006ECE8C2F8F71D0CF0111E2CE8C2F8F7131
:102C9000D2CF4C2F4F706D2FC7010E942B070E947F
:102CA000ED1975CE111173CECF70C230A9F040F47A
:102CB000CC2379F0C13009F06ACE0E94742267CE2D
:102CC000C33069F0C43009F062CE8D2F0E94C32258
:102CD0005ECE0E945C225BCE0E948D2258CE0E9466
:102CE000A02255CE4C2F4F706D2FC7010E940D09A9
:102CF0004ECEDF91CF911F910F91FF90EF90DF901B
:102D0000BF90AF909F908F9008950F931F93CF9394
:102D1000DF93EC018B819C81892B29F0888199813B
:102D200089238F3F29F4DF91CF911F910F9108954F
:102D3000CE010E9444078823B1F3688179818A819A
:102D40000E943F1C8C010E949E1B0E94651AB801C4
:102D5000CE01DF91CF911F910F910C9467140E94C7
:102D60002F1D0E943F1D0E94041D0E94581D0E949D
:102D70003F220E94932190E080E00E94111290E097
:102D800080E00C9427120E941F1D0C94AF160E9425
:102D9000351CE92FE295EF70E250EE3070F4F0E070
:102DA000EF55F44D0C941A2B803F19F020F4803E1F
:102DB00020F481E00895843FE1F380E00895803EAF
:102DC000C0F3813FD1F7F5CF93FB882780F90895B1
:102DD000CF93DF9300D000D00F92CDB7DEB70F9026
:102DE0000F900F900F900F90DF91CF910895CF9398
:102DF000DF9300D000D000D0CDB7DEB726960FB657
:102E0000F894DEBF0FBECDBFDF91CF9108951F9321
:102E1000CF93DF93C0918E0116E080918F018C13C8
:102E200004C0DF91CF911F910895D0E01C9FF00165
:102E30001D9FF00D1124E057FE4F408151816281AA
:102E40007381848195810E94F7162196C770E5CF22
:102E50004091C0015091C1016091C2017091C301C4
:102E60008091C4019091C5010C94F7161F93CF93E4
:102E7000DF938091C501807FC1F48091C2018823D6
:102E8000A1F080918E01C0918F016091C00170917D
:102E9000C1014091C3015091C401D62FD723DA015B
:102EA000A095B09516E0C81304C0DF91CF911F9193
:102EB000089590E04115510511F0DF3F31F401967E
:102EC0008770F1CF2A0F3B1F17C0189FF001199F81
:102ED000F00D1124E057FE4F21812713F0CF208100
:102EE0002613EDCF22812111EACF238134812417CB
:102EF000350740F3241B350B283C310500F72091A2
:102F0000C5012F7020612093C50126E0289FF001A4
:102F1000299FF00D1124EB56FE4F80818F70806148
:102F2000808380EC91E00E948516DF91CF911F9104
:102F30000C940717BF92CF92DF92EF92FF920F93FC
:102F40001F93CF93DF93CDB7DEB761970FB6F89499
:102F5000DEBF0FBECDBF8C0185E0F801DE011D96FE
:102F600001900D928A95E1F7D8014C9111965C91F0
:102F700011971296EC9012978091C3019091C40121
:102F8000009709F47FC12091C0013091C101622FE7
:102F900063236F3F09F476C11396CD90DC90B09017
:102FA000C201BB2009F413C1C816D906D0F1F6013D
:102FB000E81BF90BCF01FF24F394883C910508F03E
:102FC000F12C8091C501982F907FFF2009F4B6C0A5
:102FD00091117FC0FE2C351329C0241327C0E110A6
:102FE00025C08F7080618093C5010E94281780ECF6
:102FF00091E00E9485168091C501D80115968C93A9
:103000008F2D61960FB6F894DEBF0FBECDBFDF9156
:10301000CF911F910F91FF90EF90DF90CF90BF90D5
:103020000895809590958C0D9D1DC5CFCD2829F0D4
:10303000852F84238F3F09F033C180E0B82FB17012
:10304000DB2E80FF3CC080918E0120918F0136E005
:10305000821315C04D875E878D859E850E94351C25
:10306000292F22952F702230F0F0243018F59F7010
:10307000F1F0F8019581907FD1F4D12C1EC090E041
:10308000389FF001399FF00D1124E057FE4F618108
:10309000651306C06081641303C06281E6120FC02D
:1030A00001968770D5CF9F7011F0882331F3805E31
:1030B000883018F3C8010E948516FD2CA1CFEE20A0
:1030C00009F49ECF8091C50181608093C501F12CE8
:1030D00097CF351306C0241304C0D801EE2009F49D
:1030E0009CC04D875E878D859E850E94C71688236C
:1030F00009F4D2C0EE2009F4CFC08091C50180321E
:1031000070F02091C0013091C10138872F8319865A
:10311000DB86CA868C87CE0107960E94851686E0DC
:10312000F801A0ECB1E001900D928A95E1F70E94C0
:1031300036170E942817FF24F39462CF911115C00F
:103140007C2DD98AC88A6E2D89890E94E81680EC68
:1031500091E00E94851686E0E0ECF1E0DF011D922F
:103160008A95E9F70E9428174BCF351312C0241314
:1031700010C0E1100EC0F8018583C8010E948516B9
:10318000E0ECF1E086E0DF011D928A95E9F7FB2C87
:1031900037CF4D875E878D859E850E94C716882311
:1031A00009F47AC0EE2009F477C08091C50180321D
:1031B00008F4B5CF2091C0013091C1013A83298331
:1031C0001B82DD82CC828E83CE010196A6CFC816EB
:1031D000D90688F1F601E81BF90BCF01F12C883CE8
:1031E000910508F047C0FE2CEE2009F455C03513B8
:1031F00030C024132EC08091C50180FD21C0982FBE
:10320000907FF1F0D80115968C931597903F39F087
:10321000982F907F905F8F70892B15968C93C801A3
:103220000E94851686E0F801A0ECB1E001900D92B5
:103230008A95E1F797CF809590958C0D9D1DCECF07
:1032400086E0F801A0ECB1E001900D928A95E1F7DB
:10325000D7CE4D875E878D859E850E94C7168111CA
:103260005ECF8091C50181608093C501C8010E9435
:103270008516C6CE7C2DD98AC88A6E2D89890E9472
:10328000E81669CFEE2041F04D875E878D859E85DB
:103290000E94C716811143CFC8010E9485164BCFEB
:1032A00081E08E25CBCE1F93CF93DF93CDB7DEB7D2
:1032B0002C970FB6F894DEBF0FBECDBF4F83588753
:1032C00069877A878B879C87CE0107960E949A1719
:1032D000882369F08A859B85892B39F04F81588531
:1032E000842F85238F3F09F071C016E05FC086E010
:1032F000FE013796DE01119601900D928A95E1F755
:103300008A859B85892B89F388859F8189238F3FB7
:1033100061F320918F0130E0C901019687709927F0
:1033200040918E014817190671F40E94C31610923D
:103330008F0110928E0186E0E0ECF1E0DF011D923A
:103340008A95E9F7D2CF96E0929FD001939FB00D76
:103350001124A057BE4FFE01319601900D929A950F
:10336000E1F780938F010E940717BFCF819FC001B3
:10337000112480579E4F0E949A178823E9F0E0910C
:103380008E011E9FF0011124E057FE4F40815181B4
:1033900062817381848195810E94F71680918E01EC
:1033A00090E001968770992780938E0180918E011D
:1033B00090918F018913DACF2C960FB6F894DEBF67
:1033C0000FBECDBFDF91CF911F91089569857A859A
:1033D0008B859C850E94F71688CFEF92FF920F9302
:1033E0001F93CF93DF938C01892B81F0F12CEE2476
:1033F000E394E8012196F8018491843770F48430D5
:1034000008F05FC08130B1F08230A1F1DF91CF913F
:103410001F910F91FF90EF900895853709F44CC0EC
:1034200008F43DC09CE7980F903780F78F770E9493
:103430000A1449C00E5F1F4FFE01849190E2980F5D
:10344000983060F48770FE2D01C0FF0F8A95EAF76F
:103450008F2F0E94321D0E94581D02C00E942E1301
:103460008F2D815030F2EFE9FFE03197F1F700C086
:103470000000F7CF0E5F1F4FFE01849190E2980F7E
:10348000983050F48770FE2D01C0FF0F8A95EAF73F
:103490008F2F0E94381DDFCF0E940A14E1CF0E5FEC
:1034A0001F4FFE01C491C150D8F28FE99FE00197F0
:1034B000F1F700C00000F7CF0E5F1F4FFE01F49040
:1034C000CFCF0E942E138E01CBCF08956093FC01C5
:1034D0007093FD018093FE019093FF010C94AF1651
:1034E0000F931F930091FC011091FD012091FE01AB
:1034F0003091FF01DC01CB01802B912BA22BB32B50
:103500008093FC019093FD01A093FE01B093FF0115
:103510001F910F910C94AF160F931F930091FC0114
:103520001091FD012091FE013091FF01DC01CB01E2
:1035300080239123A223B3238093FC019093FD0168
:10354000A093FE01B093FF011F910F910C94AF1651
:103550000F931F930091FC011091FD012091FE013A
:103560003091FF01DC01CB0180279127A227B327EF
:103570008093FC019093FD01A093FE01B093FF01A5
:103580001F910F910C94AF161092F8011092F9014F
:103590001092FA011092FB010C94AF1641E050E03A
:1035A00060E070E004C0440F551F661F771F8A95C6
:1035B000D2F74093F8015093F9016093FA017093A8
:1035C000FB010C94AF1641E050E060E070E004C0F5
:1035D000440F551F661F771F8A95D2F78091F80117
:1035E0009091F901A091FA01B091FB01842B952BE8
:1035F000A62BB72B8093F8019093F901A093FA01C1
:10360000B093FB010C94AF1641E050E060E070E035
:1036100004C0440F551F661F771F8A95D2F7409547
:103620005095609570958091F8019091F901A09165
:10363000FA01B091FB0184239523A623B72380933D
:10364000F8019093F901A093FA01B093FB010C9457
:10365000AF1641E050E060E070E004C0440F551F39
:10366000661F771F8A95D2F78091F8019091F90132
:10367000A091FA01B091FB0184279527A627B727CF
:103680008093F8019093F901A093FA01B093FB01A4
:103690000C94AF160F931F930091F8011091F9014C
:1036A0002091FA013091FB01DC01CB01802B912BA1
:1036B000A22BB32B8093F8019093F901A093FA0108
:1036C000B093FB011F910F910C94AF160F931F93B2
:1036D0000091F8011091F9012091FA013091FB015C
:1036E000DC01CB0180239123A223B3238093F80133
:1036F0009093F901A093FA01B093FB011F910F91F0
:103700000C94AF160F931F930091F8011091F901DB
:103710002091FA013091FB01DC01CB018027912738
:10372000A227B3278093F8019093F901A093FA019F
:10373000B093FB011F910F910C94AF1608952FE0E9
:10374000929F800D1124982F977041E001C0440F83
:103750009A95EAF786958695869595E0899FF0017A
:103760001124EA53FE4F90E080E070E05191DF01B8
:1037700011979B01082E02C0369527950A94E2F70F
:10378000217021952527242325272C930196853008
:10379000910561F708952FE0929F800D1124982FD5
:1037A000977086958695869525E0829FF001112475
:1037B000EA53FE4F50E040E080E0219130E0092ED6
:1037C00002C0369527950A94E2F721703327042E1C
:1037D00001C0220F0A94EAF7822B4F5F5F4F4530FA
:1037E000510559F70895BF92CF92DF92EF92FF9261
:1037F0000F931F93CF93DF938C01C090F801D0906B
:10380000F901E090FA01F090FB018091FC019091A8
:10381000FD01A091FE01B091FF01C82AD92AEA2A30
:10382000FB2ACFE1D0E0BC2ED701C6010C2E04C08C
:10383000B695A795979587950A94D2F780FD0EC007
:10384000219788F7B12C8B2DDF91CF911F910F918C
:10385000FF90EF90DF90CF90BF900895B8018C2F2C
:103860000E942A09019761F3EECFCF93DF93EC0119
:103870000E94F31BBE01DF91CF910C942A091F9384
:10388000CF93DF93EB0190918D01992331F0CB0120
:10389000DF91CF911F910C94351C882379F0CB01D7
:1038A0000E94F31B182F682FCE010E949F1BBE01A0
:1038B000812FDF91CF911F910C942A09CB010E9497
:1038C000CB1B182FF4CF80910002859585958595A7
:1038D0000895809100028770089598E0899F900173
:1038E0001124622B609300020C94E31A9091000261
:1038F0008095892380930002282F277061F4282F58
:10390000082E000C330B9217130629F08595859528
:1039100085950C94041B089590910002977081E0A6
:1039200009F480E00895909113019923E1F09091BA
:103930008E0297FF18C0E82FE695E695E695EF31E1
:1039400039F12091010130910201E20FF32FF11DB5
:10395000877021E030E001C0220F8A95EAF781816B
:10396000822B818308952091010130910201F90198
:1039700032969FEF40E05191851751F09F3F19F427
:10398000511101C0942F4F5F4E31A9F79F3F09F4A9
:103990000895290F311D97FD3A95F9018283089505
:1039A000909113019923F1F090918E0297FF1AC024
:1039B000E82FE695E695E695EF3129F12091010192
:1039C00030910201E20FF32FF11D282F277081E0C3
:1039D00090E001C0880F2A95EAF7809591818923AC
:1039E000818308952091010130910201F9013296FD
:1039F000205E3F4F9191891303C0DF0111971C9204
:103A0000E217F307B9F7089581E090E0E091010132
:103A1000F0910201E80FF91F1082019680329105A2
:103A2000A9F7089590912402892B80932402089588
:103A300080959091240298239093240208951092E7
:103A40002402089590912302892B809323020895E4
:103A500080959091230298239093230208951092C9
:103A60002302089590912202892B809322020895C7
:103A700080959091220298239093220208951092AB
:103A80002202089580930102089510920102089580
:103A90002091010130910201F9013196205E3F4FE2
:103AA00080E0919191118F5FE217F307D1F70895AC
:103AB000E0910101F0910201809124028083E09164
:103AC0000101F0910201808190912302892B808372
:103AD000E0910101F0910201808190912202892BF5
:103AE000808390910102992361F0E0910101F091AE
:103AF00002018081892B80830E94481D81111092D0
:103B0000010280910101909102010C94FB116DEE74
:103B10007EEF90E080E00E94522B60E082E090E037
:103B20000E94342B60E083E090E00E94342B60E040
:103B300084E090E00E94342B60E085E090E00E94F9
:103B4000342B60E086E090E00E94342B40E050E0AF
:103B5000BA0188E090E00C94462B90E080E00E944F
:103B60002E2B21E08D3E9E4F09F020E0822F0895FC
:103B700082E090E00C94202B682F82E090E00C947F
:103B8000342B83E090E00C94202B682F83E090E0AE
:103B90000C94342B84E090E00C94202B682F84E06C
:103BA00090E00C94342B86E090E00C94202B682F4E
:103BB00086E090E00C94342B80919502843051F192
:103BC0001092260288E190E020E40FB6F894A895C0
:103BD000809360000FBE2093600080E00E94DB08AD
:103BE00080E00E940B0983B7817F846083BF83B725
:103BF000816083BF7894889583B78E7F83BF0FB62B
:103C0000F894A8958091600088618093600010927C
:103C100060000FBE089508950895CF930E940B1E73
:103C20000E94F80B0E940C1EC0E08C2F0E94C50C55
:103C3000892B31F4CF5FC530C1F780E0CF91089573
:103C400081E0FCCF0E94C3160E944B220E94EF111C
:103C50000C940B091F921FB61F9211248F939F93F0
:103C6000AF93BF9380912602811113C080918A0285
:103C700090918B02A0918C02B0918D024196A11D72
:103C8000B11D80938A0290938B02A0938C02B09313
:103C90008D02BF91AF919F918F911F901FBE1F907A
:103CA000189582E084BD93E095BD9AEF97BD80930F
:103CB0006E0008952FB7F89480918A0290918B023C
:103CC000A0918C02B0918D022FBF0895CF92DF9208
:103CD000EF92FF920F931F932FB7F89440918A02AF
:103CE00050918B0260918C0270918D022FBF6A01FE
:103CF0007B01EE24FF248C0130E020E0C016D106C9
:103D0000E206F30650F0481B590BCA011F910F91B0
:103D1000FF90EF90DF90CF90089541505109F3CF7D
:103D20001F921FB61F9211248F939F93AF93BF933F
:103D300080918A0290918B02A0918C02B0918D02A9
:103D40000196A11DB11D80938A0290938B02A093CE
:103D50008C02B0938D02BF91AF919F918F911F9074
:103D60001FBE1F9018950E94CE26F8942FEF87EA69
:103D700091E6215080409040E1F700C0000087E0CC
:103D800090EBDC0180939E0290939F02A093A0028F
:103D9000B093A10288E19CE00FB6F894A8958093B7
:103DA00060000FBE90936000FFCFAF92BF92CF92A2
:103DB000DF92EF92FF920F931F93CF93C0E0CC243A
:103DC000C394D12CE82EF12C8C2F0E94C50C5C01E1
:103DD00010E000E0C601002E02C0880F991F0A946F
:103DE000E2F78A219B21892B99F40F5F1F4F0F3037
:103DF000110581F7CF5FC53039F780E0CF911F9172
:103E00000F91FF90EF90DF90CF90BF90AF9008950B
:103E1000602F7C2F80E00E940E09E816F90629F732
:103E200081E0ECCFCF93C82F8CE20E94D51E88236F
:103E300021F08C2FCF910C94D51E80E0CF91089566
:103E4000CF930E94AD1D811102C00E94871DC5E65F
:103E500008C00E94F80B8FE39CE90197F1F700C0BE
:103E60000000C150B1F789E20E94121F8111EFC01A
:103E70008AE20E94121F81110E94871D85E00E9424
:103E8000121F81110E94B31E0E94B81D809325024B
:103E900087E00E94121F882371F08BE10E94121F9D
:103EA000882309F4B1C090912502892F8D7F91FF5D
:103EB000826080932502809125020E94BC1D0E9491
:103EC000CA1D90E090938F0280938E0280EE0E9434
:103ED000121F882341F090918E02892F8E7F90FFD0
:103EE000816080938E0289E30E94121F882341F033
:103EF00090918E02892F8D7F91FF826080938E0238
:103F000082EE0E94121F882341F090918E02892F29
:103F10008B7F92FF846080938E0286EE0E94121F38
:103F2000882341F090918E02892F877F93FF8860CC
:103F300080938E0283EE0E94121F882341F090919D
:103F40008E02892F8F7E94FF806180938E0285E39D
:103F50000E94121F882341F090918E02892F8F7D3D
:103F600095FF806280938E0281E30E94121F882356
:103F700041F090918E02892F8F7B96FF8064809311
:103F80008E0281E10E94121F882341F090918E02DF
:103F9000892F97FB87F9805880938E0280918E023B
:103FA0000E94CE1D87E20E94121FC82F8EE10E9440
:103FB000121F8111C2608FE10E94121F8111C46023
:103FC00080E20E94121F8111C86081E20E94121FCC
:103FD0008111C06182E20E94121F8111C06283E2DE
:103FE0000E94121F8111C06484E20E94121F882364
:103FF00041F1C0688C2F0E94C51D6C2F70E090E0CD
:1040000080E0CF910C94661A8EE00E94121F8823E4
:1040100039F090912502892F8B7F92FF846049CFE0
:1040200080E10E94121F90912502882329F0892F98
:10403000877F93FF88603DCF892F8E7F90FF8160BF
:1040400038CFC111D7CF0E94C11D682FD7CFCF91D4
:1040500008958091290280FF12C06091060185E0D9
:10406000689FB001112475956795759567956038BF
:104070007105A8F561157105A1F1862F089581FFDD
:1040800009C06091060185E0689FB0011124759513
:104090006795EDCF6091060182FD0AC080912A02EA
:1040A0008823D1F09091050160910601891728F0CD
:1040B00085E0689FB0011124DACF869FB0011124FA
:1040C00085E0869F9001879F300D1124692F70E055
:1040D000C9010E94062BCBCF65E070E0CECF8FE701
:1040E000089581E008958091290280FF0CC06091BD
:1040F000040170E075956795759567956115710573
:1041000049F1862F089581FF06C06091040170E097
:1041100075956795F3CF6091040182FD0BC0909176
:104120002A029923A1F0609103018091040196175E
:1041300038F0682F70E06038710500F38FE708955C
:10414000899FC001112470E00E94062BF4CF61E02A
:1041500070E0D7CF81E00895803F31F40E9429209C
:10416000819580932D020895813F19F40E942920A2
:10417000F8CF823F31F40E942920819580932C0250
:104180000895833F19F40E942920F8CF893F29F42C
:104190000E94732080932E0208958A3F21F40E948A
:1041A00073208195F7CF8B3F31F40E947320819566
:1041B00080932F0208958C3F19F40E947320F8CF4A
:1041C000843F31F480912B02816080932B0208950B
:1041D000853F21F480912B028260F7CF863F21F446
:1041E00080912B028460F1CF873F21F480912B02D4
:1041F0008860EBCF883F21F480912B028061E5CF6E
:104200008D3F31F4809129028160809329020895C5
:104210008E3F21F4809129028260F7CF8F3FB9F75A
:10422000809129028460F1CF90912C02803F41F46B
:1042300080912D0287FD10922D02992371F008952F
:10424000813F29F480912D021816ACF3F6CF823FFE
:1042500081F497FFF2CF10922C0280912D02909161
:104260002E02892B90912F02892B49F710922A0256
:104270000895833F19F4191674F3DFCF893F39F499
:1042800080912E021816CCF610922E02D6CF8A3FBD
:1042900029F480912E0287FFD0CFF6CF8B3F39F4DF
:1042A00080912F0287FFC9CF10922F02C6CF8C3F7B
:1042B00029F480912F021816BCF3BFCF843F31F44C
:1042C00080912B028E7F80932B02B7CF853F21F404
:1042D00080912B028D7FF7CF863F21F480912B02B6
:1042E0008B7FF1CF873F21F480912B02877FEBCF2B
:1042F000883F21F480912B028F7EE5CF8D3F31F4F2
:10430000809129028E7F8093290297CF8E3F21F4DE
:10431000809129028D7FF7CF8F3F09F08ECF80915A
:1043200029028B7FF0CF8BE292E00E9406120E945E
:104330005A1E909328028093270208951F93CF93CB
:10434000DF9380912702909128020E94661EAC01A3
:1043500090912A022091070130E0911106C020912E
:1043600008018AE0289F900111244217530778F032
:1043700020912C02C0912D02D0912E0210912F027B
:10438000211109C08C2F8D2B812B09F074C0DF9176
:10439000CF911F9108959F3F19F09F5F90932A023C
:1043A000121624F40E94292080932C0280912C0262
:1043B00087FF05C00E942920819580932C021C163E
:1043C00024F40E94292080932D0280912D0287FFE2
:1043D00005C00E942920819580932D0260912C02B6
:1043E000662331F1C0912D02CC2311F1062E000C71
:1043F000770B880B990B0E94F92923E333E343E3FE
:104400005FE30E945D2A0E94C12960932C026C2FF9
:10441000CC0F770B880B990B0E94F92923E333E328
:1044200043E35FE30E945D2A0E94C12960932D024D
:104430001D1624F40E94732080932E0280912E0278
:1044400087FF05C00E947320819580932E0211166C
:1044500024F40E94732080932F0280912F0287FF03
:1044600005C00E947320819580932F02DF91CF9128
:104470001F910C9493219F3F09F08FCFA0CF85E02F
:10448000EBE2F2E0DF011D928A95E9F710922A0231
:104490001092290208950E94AD1D811102C00E9450
:1044A000871D0E94D31D8093900280FF03C08695D4
:1044B0000C94DB0880E0FCCF80919002982F9695B9
:1044C000933030F49F5F990F8170892B8093900215
:1044D000809190028160809390020E94D71D80910C
:1044E000900286950C94DB0880919002982F9E7F15
:1044F00079F08250809390028E7F91E009F490E0F1
:104500008091900290FB80F9809390020E94D71DC9
:104510008091900286950C94DB0890919002892FEF
:104520008E7F90FF8160809390020E94D71D8091C2
:10453000900280FF03C086950C94DB0880E0FCCFDE
:1045400090919002892F86958F5F8F77917084303C
:10455000B8F4880F892B80939002809190028E7F0F
:1045600091E009F490E08091900290FB80F98093B3
:1045700090020E94D71D8091900286950C94DB08D2
:1045800090939002EACF90919002292F269582274E
:10459000880F9170982B909390029E7F21E009F4F0
:1045A00020E08091900220FB80F9809390020E948D
:1045B000D71D8091900286950C94DB088091500263
:1045C0000895CF93DF9300D00F92CDB7DEB79C0153
:1045D00080919502843019F593E099833B832A8377
:1045E0009093E9008FEF9091E800815095FD06C00F
:1045F00095ED9A95F1F700008111F5CF8091E800D3
:1046000085FF0DC050E040E063E070E0CE01019610
:104610000E9440258091E8008E778093E8000F90FB
:104620000F900F90DF91CF910895CF93DF9300D03B
:104630000F92CDB7DEB720919502243031F522E0FC
:104640002983805891099B838A8383E08093E900C2
:104650008FEF9091E800815095FD06C095ED9A95F9
:10466000F1F700008111F5CF8091E80085FF0DC0C2
:1046700050E040E063E070E0CE0101960E944025EA
:104680008091E8008E778093E8000F900F900F9054
:10469000DF91CF9108959C01809195028430F9F4C7
:1046A00082E08093E9009FEF8091E800915085FDC2
:1046B00006C085ED8A95F1F700009111F5CF809144
:1046C000E80085FF0CC050E040E065E070E0C90103
:1046D0000E9440258091E8008E778093E80008953D
:1046E000CF93DF93EC01809195028430F1F49091A7
:1046F00013019923E9F090918E0297FF19C08093DE
:10470000E9008FEF9091E800815095FD06C095E19A
:104710009A95F1F700008111F5CF8091E80050E003
:1047200040E060E270E085FD1AC0DF91CF9108950E
:1047300081E08093E9008FEF9091E800815095FD32
:1047400006C095ED9A95F1F700008111F5CF8091A3
:10475000E80085FFEACF50E040E068E070E0CE017D
:104760000E9440258091E8008E778093E80080E2E7
:10477000FE01A0E3B2E001900D928A95E1F7D5CF5A
:1047800080919402811109C00E94CE260E942B279D
:104790008091E20084608093E20008951092940278
:1047A0000895089508950C94221E42E061EC81E082
:1047B0000E944C2642E061EC82E00E944C2642E0DE
:1047C00061EC83E00E944C2642E261EC84E00C94B0
:1047D0004C2680919702833009F455C030F4813023
:1047E00071F1823009F491C008958A3009F47DC0D6
:1047F0008B3009F463C0893009F044C0809196027F
:10480000813209F03FC080919A0290919B020097FB
:1048100011F00397B9F58091E800877F8093E80055
:104820008091E80082FF2AC08091F10080935002BD
:104830008091E8008B778093E8000C94802680912B
:104840009602813AF9F48091E800877F8093E8002E
:1048500080919A0290919B02892B61F460E280E33F
:1048600092E070E00E948F258091E8008B77809322
:10487000E800089560E090E080E0F3CF8091950239
:104880008111CECF089580919602813AD9F7809117
:104890009A0290919B02892BA9F78091E800877F6B
:1048A0008093E8008091E80080FFFCCF80911301A5
:1048B0008093F1008091E8008E77BDCF80919602C1
:1048C000813201F780919A0290919B02892BD1F657
:1048D0008091E800877F8093E8000E948026809185
:1048E0009802809313010C94C31680919602813232
:1048F00049F68091E800877F8093E8000E94802637
:104900008091990280935102089580919602813A94
:1049100009F0B8CF8091E800877F8093E80080910C
:10492000E80080FFFCCF80915102C2CF84B7877F1F
:1049300084BF0FB6F894A895809160008861809339
:104940006000109260000FBE80E8809361001092BA
:1049500061000E943E120E94CE260E942B27809169
:10496000E20084608093E20078940E94A5290E946E
:10497000401289E091E00E94EA1180919502853011
:1049800029F00E944A120E94B711F7CF0E94DC1D45
:1049900080919302882389F30E940D1E882369F376
:1049A0000E942A25EACF292F33272330310521F110
:1049B00068F42130310509F443C02230310509F48F
:1049C00044C090E080E030E020E026C02132310594
:1049D00051F122323105A9F7643098F770E0FB01FC
:1049E000EE0FFF1FE45DFE4F20813181685D7E4F39
:1049F000FB01808190E010C099278130910581F002
:104A0000009729F00297E9F6E9E1FCE002C0E5E44D
:104A1000FCE0849190E09F01FA01318320830895A6
:104A2000EDE2FCE0F6CF643060F6E62FF0E0EE0F4A
:104A3000FF1FEC5CFE4F2081318189E090E0ECCFDC
:104A400082E190E026EB3CE0E7CF8DE690E029E4C0
:104A50003CE0E2CF80E189BD82E189BD09B400FE7E
:104A6000FDCF8091D8008F7D8093D8008091E000A9
:104A700082608093E0008091E00081FDFCCF08958A
:104A8000AF92BF92CF92DF92FF920F931F93CF937B
:104A9000DF936C01EB018A010E949F26F82E8111A1
:104AA00023C00115110539F0F80180819181C81BDF
:104AB000D90BC80ED91EB12CA12C2097A9F080913A
:104AC000E80085FD22C08091E8008E778093E800A1
:104AD00001151105A1F0F80180819181A80EB91E80
:104AE000B182A08285E0F82E8F2DDF91CF911F91AA
:104AF0000F91FF90DF90CF90BF90AF9008950E94EC
:104B00009F268823D1F2F82EEFCFF60181916F0115
:104B10008093F1002197FFEFAF1ABF0ACECFFC01BF
:104B200080919C0290919D0286179707A0F06115D5
:104B3000710529F49091E8009E779093E80090E049
:104B40006115710551F4911108C08091E80082FF50
:104B500034C080E00895BC01F2CF80919502882393
:104B6000C1F18530C1F18091E80083FD30C08091B2
:104B7000E80082FDEACF8091E80080FFE1CF8091DC
:104B8000F3002091F200382F6115710519F02830DB
:104B9000310558F091E02830310509F090E020917E
:104BA000E8002E772093E800CBCF81918093F1002D
:104BB000615071092F5F3F4FE7CF809195028823A5
:104BC00041F0853041F08091E80083FFBECF81E065
:104BD000089582E0089583E00895FC0180919C028D
:104BE00090919D0286179707A0F06115710529F431
:104BF0008091E8008E778093E80090E06115710560
:104C000051F4911108C08091E80082FF35C080E026
:104C10000895BC01F2CF809195028823C9F18530B7
:104C2000C9F18091E80083FD31C08091E80082FDE8
:104C3000EACF8091E80080FFE1CF8091F3002091DE
:104C4000F200382F6115710519F02830310558F040
:104C500091E02830310509F090E08091E8008E77EE
:104C60008093E800CBCF84918093F100319661501E
:104C700071092F5F3F4FE6CF80919502882341F065
:104C8000853041F08091E80083FFBDCF81E0089539
:104C900082E0089583E00895982F973028F08F7070
:104CA0008093E90081E008959093E900242F762F06
:104CB00050E0981731F07091EC002091ED00509188
:104CC000F00021FD02C09F5FE8CF3091EB003E7FF6
:104CD0003093EB003091ED003D7F3093ED0030914B
:104CE000EB0031603093EB007093EC002093ED000B
:104CF0005093F0002091EE0027FDE5CF80E008956D
:104D00008091960287FF13C08091E80082FF06C061
:104D10008091E8008B778093E80004C08091950231
:104D20008111F2CF0895809195028823D9F3809163
:104D3000E80080FFF8CF8091E8008E77ECCF2091DB
:104D4000E4003091E50085E6A9019091EC0090FF28
:104D500006C09091E80090FF06C080E00895909111
:104D6000E80092FDFACF90919502992389F0953051
:104D700089F09091EB0095FD0FC02091E4003091F7
:104D8000E5004217530709F38150F1F684E00895D6
:104D900082E0089583E0089581E008950E943C2711
:104DA0000E944427E0EEF0E0808181608083E8ED9E
:104DB000F0E080818F77808319BCA7EDB0E08C9103
:104DC0008E7F8C9380818F7E8083109294020895D1
:104DD0000F931F93CF93DF930E943C270E94442799
:104DE000C8EDD0E088818F77888388818068888348
:104DF00088818F7D888319BC109295021092910250
:104E0000109293021092920200EE10E0F80180815D
:104E10008B7F808388818160888342E060E080E0CE
:104E20000E944C26E1EEF0E080818E7F8083E2EEEE
:104E3000F0E0808181608083808188608083F801D8
:104E400080818E7F8083888180618883DF91CF918C
:104E50001F910F910895E8EDF0E080818F7E8083AF
:104E6000E7EDF0E080818160808384E082BF81E0B3
:104E7000809394020C94E826E8EDF0E080818E7F28
:104E800080831092E20008951092DA001092E100FF
:104E900008951F920F920FB60F9211242F933F93F4
:104EA0004F935F936F937F938F939F93AF93BF9332
:104EB000EF93FF938091E10082FF0BC08091E200AD
:104EC00082FF07C08091E1008B7F8093E1000E9408
:104ED000A4298091DA0080FF19C08091D80080FF5A
:104EE00015C08091DA008E7F8093DA008091D9001E
:104EF00080FF94C080E189BD82E189BD09B400FED4
:104F0000FDCF81E0809395020E94C0238091E10053
:104F100080FF19C08091E20080FF15C08091E200FF
:104F20008E7F8093E2008091E20080618093E200B6
:104F30008091D80080628093D80019BC85E080936E
:104F400095020E94D2238091E10084FF29C08091C4
:104F5000E20084FF25C080E189BD82E189BD09B4FA
:104F600000FEFDCF8091D8008F7D8093D800809186
:104F7000E1008F7E8093E1008091E2008F7E80933C
:104F8000E2008091E20081608093E20080919102D2
:104F9000882309F449C084E0809395020E94D323BA
:104FA0008091E10083FF29C08091E20083FF25C04A
:104FB0008091E100877F8093E10082E080939502F9
:104FC000109291028091E1008E7F8093E1008091A8
:104FD000E2008E7F8093E2008091E2008061809306
:104FE000E20042E060E080E00E944C268091F00008
:104FF00088608093F0000E94D123FF91EF91BF91D0
:10500000AF919F918F917F916F915F914F913F9160
:105010002F910F900FBE0F901F90189519BC1092F2
:1050200095020E94CE2372CF8091E30087FD02C0DB
:1050300081E0B2CF83E0B0CF1F920F920FB60F92F4
:1050400011242F933F934F935F936F937F938F938D
:105050009F93AF93BF93CF93EF93FF93C091E900DA
:10506000CF708091EC001092E9008091F000877F72
:105070008093F00078940E9458281092E900809163
:10508000F00088608093F000C093E900FF91EF91F9
:10509000CF91BF91AF919F918F917F916F915F91D0
:1050A0004F913F912F910F900FBE0F901F90189529
:1050B0001F93CF93DF93CDB7DEB7AA970FB6F894BF
:1050C000DEBF0FBECDBF86E992E02091F100FC016A
:1050D0002193CF01F2E08E399F07B9F70E94E923AF
:1050E0008091E80083FF82C08091960290919702A0
:1050F0009A3008F07BC0E92FF0E0E155F44D0C94B4
:105100001A2B803881F0823809F070C080919A02A1
:105110008F708093E9008091EB0085FB882780F9F0
:105120001092E90006C08091920290919302911131
:1051300082609091E800977F9093E8008093F1005F
:105140001092F1008091E8008E77F9C0882309F46D
:10515000E6C0823009F04AC0809198028111EAC00D
:1051600080919A028F7009F441C08093E9002091E8
:10517000EB0020FFDFC0933031F48091EB008062C0
:105180008093EB00D7C09091EB0090619093EB007F
:1051900021E030E001C0220F8A95EAF72093EA006F
:1051A0001092EA008091EB008860EACF81111EC066
:1051B000109198021F778091E3008078812B809373
:1051C000E3008091E800877F8093E8000E948026BA
:1051D0008091E80080FFFCCF8091E300806880939D
:1051E000E30082E0111183E0809395028091E80052
:1051F00083FF0AC08091E800877F8093E800809158
:10520000EB0080628093EB00AA960FB6F894DEBFA5
:105210000FBECDBFDF91CF911F910895805882308E
:1052200028F780919802909199028C3D23E0920793
:10523000A1F583E08A838AE289834FB7F894DE017F
:10524000139620E03EE051E2E32FF0E05093570048
:10525000E49120FF03C0E295EF703F5FEF708E2F67
:1052600090E0EA30C0F0C7968D939D932F5F243174
:1052700059F74FBF8091E800877F8093E8006AE28A
:1052800070E0CE0101960E948F258091E8008B7717
:105290008093E800ABCFC096E7CFAE014F5F5F4F82
:1052A00060919A020E94D324BC01892B09F49ECFFD
:1052B0009091E800977F9093E80089819A810E94FD
:1052C000ED25E3CF803809F091CF8091E800877F0A
:1052D0008093E800809191028093F10033CF811197
:1052E00085CF90919802923008F080CF8091E800AD
:1052F000877F8093E800909391020E94802680919E
:105300009102882311F084E005C08091E30087FDBD
:10531000FACF81E0809395020E94D52367CF8091D8
:105320009802813009F062CF81E0933009F080E08B
:10533000809393021092E9008091E800877F809328
:10534000E8000E94802652CF0895CF938091950265
:10535000882399F0C091E900CF708091EC0080FD26
:105360000EC080E0C82B1092E9008091E80083FD18
:105370000E945828CF70C093E900CF91089580E82B
:10538000F1CF0E94C8296894B1110C94572A08954E
:105390000E943C2A88F09F5798F0B92F9927B7515F
:1053A000B0F0E1F0660F771F881F991F1AF0BA95C9
:1053B000C9F714C0B13091F00E94562AB1E00895A7
:1053C0000C94562A672F782F8827B85F39F0B93F99
:1053D000CCF3869577956795B395D9F73EF490957C
:1053E0008095709561957F4F8F4F9F4F0895E894FA
:1053F00009C097FB3EF490958095709561957F4F1D
:105400008F4F9F4F9923A9F0F92F96E9BB279395CA
:10541000F695879577956795B795F111F8CFFAF4DA
:10542000BB0F11F460FF1BC06F5F7F4F8F4F9F4F0B
:1054300016C0882311F096E911C0772321F09EE869
:10544000872F762F05C0662371F096E8862F70E0CF
:1054500060E02AF09A95660F771F881FDAF7880FA9
:105460009695879597F9089557FD9058440F551FC5
:1054700059F05F3F71F04795880F97FB991F61F0D6
:105480009F3F79F087950895121613061406551F4D
:10549000F2CF4695F1DF08C0161617061806991FB9
:1054A000F1CF86957105610508940895E894BB27AE
:1054B00066277727CB0197F908950E94702A0C94EC
:1054C000E12A0E94D32A38F00E94DA2A20F095239C
:1054D00011F00C94CA2A0C94D02A11240C94572A47
:1054E0000E94342A70F3959FC1F3950F50E0551F29
:1054F000629FF001729FBB27F00DB11D639FAA2729
:10550000F00DB11DAA1F649F6627B00DA11D661F77
:10551000829F2227B00DA11D621F739FB00DA11D98
:10552000621F839FA00D611D221F749F3327A00D52
:10553000611D231F849F600D211D822F762F6A2FEE
:1055400011249F5750409AF0F1F088234AF0EE0F53
:10555000FF1FBB1F661F771F881F91505040A9F780
:105560009E3F510580F00C94CA2A0C94572A5F3F45
:10557000E4F3983ED4F3869577956795B795F795BC
:10558000E7959F5FC1F7FE2B880F911D9695879534
:1055900097F9089597F99F6780E870E060E00895B3
:1055A0009FEF80EC089500240A941616170618063B
:1055B0000906089500240A94121613061406050617
:1055C0000895092E0394000C11F4882352F0BB0FA8
:1055D00040F4BF2B11F460FF04C06F5F7F4F8F4F0B
:1055E0009F4F0895AA1BBB1B51E107C0AA1FBB1FF9
:1055F000A617B70710F0A61BB70B881F991F5A955F
:10560000A9F780959095BC01CD01089597FB072ED1
:1056100016F4009407D077FD09D00E94F22A07FC07
:1056200005D03EF4909581959F4F089570956195B2
:105630007F4F0895EE0FFF1F0590F491E02D099420
:10564000F999FECF92BD81BDF89A992780B508954A
:10565000A6E1B0E044E050E00C945A2BA8E1B0E0A1
:1056600042E050E00C945A2B262FF999FECF92BDC0
:1056700081BDF89A019700B4021639F01FBA20BD17
:105680000FB6F894FA9AF99A0FBE08950396272F49
:105690000E94352B0E94342B252F0E94352B242F5E
:1056A0000C94352B0196272F0E94352B0C94342B0C
:1056B000DC01CB01FC01F999FECF06C0F2BDE1BDD2
:1056C000F89A319600B40D9241505040B8F70895C1
:1056D000F894FFCF3608420846084A084E08520898
:1056E00056085A085E08620866086A086E0872085A
:1056F00076087A087E0882089A149A14EA14EA1442
:105700002C154815C714C7145315C714EB15EB1502
:1057100049165216C7147216F515F515F515F51537
:10572000F515F515F515F515F515F515F515F51529
:10573000F515F515F515F5150216101617161E16A2
:105740002816D416D416DD16DD16DF16DD16DD1686
:10575000DD16D416D416E416DD16DD16E4168128FF
:10576000A628F628A628F628D6280E29F628622983
:025770006F299F
:10577200FF02022808140A321EDE2270234B231570
:1057820023E12201F6F5F4F1C69593929190949655
:105792009734353033673666404D3639840D370DD0
:0C57A200010DC80C5B0C740C8D0CA60CE7
:0200000400807A
:04029E00000000005C
:00000001FF
